:020000040800F2
:100000002008002039020008F72100082F1F0008EF
:10001000F5210008150500086D2A00080000000001
:100020000000000000000000000000008B2300081A
:10003000C905000800000000F92100088D23000810
:10004000530200085302000853020008530200083C
:10005000530200085302000853020008530200082C
:100060005302000853020008E50600085302000886
:10007000530200085302000853020008530200080C
:100080001905000853020008530200080000000090
:10009000000000000000000000000000EB06000867
:1000A00053020008312400085302000853020008DC
:1000B00053020008530200085302000853020008CC
:1000C00053020008530200085302000853020008BC
:1000D0005302000853020008612A000800000000D3
:1000E000DD0600085302000853020008000000006B
:1000F00000000000000000000000000053020008A3
:1001000000000000530200085302000853020008D8
:1001100000000000000000000000000000000000DF
:10012000530200085302000853020008530200085B
:100130005302000800000000000000000000000062
:100140000000000000000000000000005302000852
:10015000530200085302000853020008530200082B
:1001600053020008530200080000000000000000D5
:10017000000000000000000000000000000000007F
:100180000000000053020008000000000000000012
:10019000530200085302000800F002F800F03CF897
:1001A0000AA090E8000C82448344AAF10107DA45D2
:1001B00001D100F031F8AFF2090EBAE80F0013F0E8
:1001C000010F18BFFB1A43F001031847DC30000091
:1001D000FC300000103A24BF78C878C1FAD8520722
:1001E00024BF30C830C144BF04680C6070470000B1
:1001F0000023002400250026103A28BF78C1FBD830
:10020000520728BF30C148BF0B6070471FB503F0CD
:1002100030F81FBD10B510BD00F0CFF81146FFF744
:10022000F5FF02F035FC00F0EDF803B4FFF7F2FF44
:1002300003BC00F0F5F80000094880470948004772
:10024000FEE7FEE7FEE7FEE7FEE7FEE7FEE7FEE786
:10025000FEE7FEE704480549054A064B70470000E3
:100260002124000899010008200200202008002015
:10027000200400202004002053EA020C00F06980D2
:100280002DE9F04B4FF00006002B1FBFB3FA83F5AA
:1002900003FA05F424FA05F65E4012BF1643B2FADB
:1002A00082F502FA05F4C5F120051EBF22FA05FC0D
:1002B00044EA0C04203556EA044C4FEA144418BFB3
:1002C000641C4FF000084FF00009904271EB030CE2
:1002D00039D3002919BFB1FA81F701FA07F6B0FA4C
:1002E00080F700FA07F6C7F120071EBF20FA07FCC7
:1002F00046EA0C062037B6FBF4FCA7EB0507103FD7
:1003000007F01F0BCBF120060CFA0BFB2CFA06F6BC
:1003100044BFB3460026202FA4BF5E464FF0000B1B
:100320005BEA060C08BF4FF0010B19EB0B09ABFBA6
:10033000027C48EB0608C01B06FB02CC0BFB03CC7F
:1003400071EB0C01C1E70B46024641464846BDE849
:10035000F08B13B54FF000004FF00001AFF30080B9
:10036000BDE81C4070474FF0000200B513469446AC
:100370009646203922BFA0E80C50A0E80C50B1F1FD
:100380002001BFF4F7AF090728BFA0E80C5048BF11
:100390000CC05DF804EB890028BF40F8042B08BFAF
:1003A000704748BF20F8022B11F0804F18BF00F8AB
:1003B000012B7047704770477047754600F02CF866
:1003C000AE4605006946534620F00700854618B042
:1003D00020B5FFF73FFFBDE820404FF000064FF08B
:1003E00000074FF000084FF0000B21F00701AC466A
:1003F000ACE8C009ACE8C009ACE8C009ACE8C00989
:100400008D46704710B50446AFF300802046BDE826
:100410001040FFF70ABF000000487047BC010020F1
:1004200001491820ABBEFEE726000200704700001D
:1004300070B5374D04462DED068BB0EE408AF0EED8
:10044000418AB0EEC89AD0ED009AB0EEE90AB4EE57
:10045000C90AF1EE10FA22D210EE900A02F098FECC
:1004600095ED001B53EC112B02F074FC41EC1A0BC0
:1004700019EE900A02F08CFE53EC1A2B02F07AFB74
:1004800002F046FB00EE100A84ED000AB0EEC00A4E
:10049000B4EEC90AF1EE10FA01DB84ED008AD4ED66
:1004A000009AB0EEE90AB4EEC90AF1EE10FA25DDC1
:1004B00018EE900A02F06CFE95ED001B53EC112B28
:1004C00002F048FC41EC1A0B19EE900A02F060FEB3
:1004D00053EC1A2B02F072FD02F01AFB00EE100A28
:1004E000F5EEC08A84ED000AF1EE10FA09DBB4EEF5
:1004F000C80AF1EE10FA01D884ED008ABDEC068B33
:1005000070BDB4EEC80AF1EE10FAF5DAF6E70000B5
:1005100018000020FEE70000014800F047B9000085
:100520005C01002001681823CAB2103AB2FBF3F252
:10053000054B6FF30901032A9B5CC36500D9091DB4
:1005400081650846704700009E32000810B50146DC
:1005500000208B698A6A4FF0C07453B1B3F5005F15
:1005600015D072B1012A0CD0022A0AD0032A09D16F
:1005700004E01AB1012A06D0022A03D1C96AC901CE
:1005800000D5012010BDC96AA142FAD010BD002AD1
:10059000F7D0012AF2D0022AF3D0032AF3D010BDFB
:1005A00030B50468256825F48025256004686360FB
:1005B0008368402B036803D099600068C26030BD37
:1005C0009A600068C16030BD7047000010B510EE41
:1005D000100A02F0DDFD9FED081B53EC112B02F019
:1005E000B9FB9FED071B53EC112B02F0C3FA02F08D
:1005F0008FFA00EE100A10BD000000000000E03F7E
:1006000000000000000059402DE9F0410D4604466D
:100610001E4617460421074801F08CF900EE105AD7
:1006200067800548B8EE400A268084ED020A05601E
:10063000BDE8F081D00000203804004010B5044629
:100640002DED028BB2EE048AB0F9000000EE900AA4
:10065000F8EEE00AF4EEC00AF1EE10FA0AD9B4F9A5
:10066000020000EE900AF8EEE00AF4EEC00AF1EEA5
:1006700010FA03DB00EE100AB8EEC00AFFF7A6FF7F
:10068000B5EEC00A84ED010AF1EE10FA04F108009B
:1006900005DD00BFB0EE481AF0EE480A0FE0B5EEF7
:1006A000C00AFAEE040AF1EE10FA06D394ED021A2B
:1006B000B5EEC01AF1EE10FAECD2B0EE601AFFF708
:1006C000B7FE94ED020A0449BDEEC00A10EE100A0E
:1006D0000860BDEC028B10BD380400404FF4806010
:1006E00000F0FAB9102000F0F7B94FF4807000F074
:1006F000F3B972B6FEE72DE9F0410446876D00F0CC
:10070000F5FA064694F835000025022806D0802028
:10071000606584F834500120BDE8F08120680168EC
:1007200021F0160101602068416921F080014161DA
:10073000206C08B9A06C20B12068016821F0080184
:1007400001602068016821F0010101600CE000F007
:10075000CDFA801B052807D920206065032084F886
:10076000350084F83450D7E720680068C007EED120
:1007700094F85C103F208840B860012084F8350070
:1007800084F834500020C7E790F83510022903D0D0
:100790008021416501207047052180F835100068EF
:1007A000016821F001010160002070472DE9F84344
:1007B00004464FF00009CDF8009063484FF41651FD
:1007C000A56D0068B0FBF1F72E6894F85C10082066
:1007D00000FA01F131420FD021680A6852070BD5A7
:1007E0000A6822F004020A6094F85C108840A8604D
:1007F000606D40F00100606594F85C104FF00108F6
:1008000008FA01F0304208D021684969090604D588
:10081000A860606D40F00200606594F85C100420F0
:100820008840304208D021680968890704D5A8604B
:10083000606D40F00400606594F85C101020884002
:10084000304218D021680968090714D5A8602068CB
:100850000168490304D50068000308D5A16C07E0CE
:100860000168C90503D4016821F008010160216C09
:1008700009B12046884794F85C1020208840304217
:1008800031D021680968C9062DD5A86094F83500D3
:1008900005282068016806D0490347D50068000391
:1008A0001DD4616C1CE021F01601016020684169D3
:1008B00021F080014161206C08B9A06C20B1206852
:1008C000016821F00801016094F85C103F20884025
:1008D000A86084F8358084F83490216D1FE0E16BC6
:1008E00009B120468847606D00282BD0606DC00795
:1008F00014D0052084F835002068016821F001013A
:1009000001600098401C0090B84203D8206800683D
:10091000C007F6D184F8358084F83490E16C002962
:1009200010D001B02046BDE8F04308470168C90572
:10093000D5D4016821F01001016084F8358084F875
:100940003490CCE7BDE8F883100000202DE9F04199
:10095000044600F0CBF906465CB1022084F835006D
:10096000002584F834502068016821F001010160FD
:100970000DE00120BDE8F08100F0B8F9801B0528EA
:1009800005D920206065032084F83500F2E720684F
:100990000068C007F0D12268116820480140D4E9FE
:1009A00001031843D4E903363343184363691843FA
:1009B000A3691843E3691843236A18430843616A2B
:1009C000042903D1D4E90B131943084310602068AC
:1009D0004069666A20F0070130460E43012704286B
:1009E0000CD1A06A0643E06A40B12046FFF7AEFD95
:1009F00020B14020606584F83570BAE72068466110
:100A00002046FFF78FFD94F85C203F2191408160E4
:100A1000656584F835700020ACE700003F8010F079
:100A20002DE9F0410446866D90F834000025012838
:100A30000DD0012084F8340094F835700020012F87
:100A400007D084F8340002252846BDE8F081022052
:100A5000FBE7022784F8357060652046FFF7A0FDAC
:100A600094F85C103F208840B0602068016841F035
:100A700016010160206C20B12068016841F0080176
:100A800001602068016841F001010160DCE70000BD
:100A900070B5044600F02AF90546601C02D00448EF
:100AA0000078044400F022F9401BA042FAD370BD44
:100AB000280000200749B0F5807F06D0B0F5806F90
:100AC00005D0102805D1022002E0002000E001201E
:100AD0000870704700000020044910B50A680242FF
:100AE00002D00860FFF7E6FF10BD0000143C014093
:100AF0002DE9F84FDFF8B8A10022012403254FF0BB
:100B00000F090AF1040BAAF1040E00BF0B6804FAE6
:100B100002F63340B34273D10F7907F00307012F78
:100B200001D0022F16D187684FEA420805FA08FC67
:100B300027EA0C07D1F80CC00CFA08FC4CEA070CA9
:100B4000C0F808C04768B7430E79C6F30016964050
:100B50003E4346600E79F643B6070DD0C76856008F
:100B600005FA06FC27EA0C07D1F808C00CFA06FCC7
:100B70004CEA070CC0F80CC00E7906F00306022EF2
:100B800010D1D60800EB8608D8F8206057074FEA46
:100B9000D76C09FA0CF7BE430F6907FA0CF7374315
:100BA000C8F8207006684FEA420C05FA0CF7BE43FD
:100BB0000F7907F0030707FA0CF7374307604E6811
:100BC00016F4403F6DD03B4E376847F4804737609E
:100BD000366822F0030706F480460096364E07EB8F
:100BE000060CDCF8086897073F0F09FA07F826EAB1
:100BF0000806DFF8C880404503D14FF000081EE02A
:100C00004FE0DFF8BC80404502D14FF0010816E00C
:100C1000DFF8B080404502D14FF002080FE0DFF866
:100C2000A880404502D14FF0030808E0DFF89C801F
:100C3000404502D14FF0040801E04FF0070808FAE0
:100C400007F848EA0608CCF80888DAF80060574642
:100C5000D1F804C09E435FEACC2C00D51E433E6011
:100C6000DBF800605F46D1F804C09E435FEA8C2C3D
:100C700000D51E433E60DEF800607746D1F804C020
:100C80009E435FEA8C3C00D51E433E60084F083F00
:100C90003E68D1F804C09E435FEACC3C00D51E43B9
:100CA0003E60521C102AFFF431AFBDE8F88F0000FF
:100CB000083C01404438024000300140000002403E
:100CC0000004024000080240000C024000100240F4
:100CD000426921EA02030A4043EA02418161704706
:100CE0000AB1816170470904FBE700000148806890
:100CF00070470000280000200248816802781144F3
:100D000081607047280000200B4810B5016841F44D
:100D100000710160016841F480610160016841F483
:100D200080710160032000F06FF80F2000F006F8DA
:100D300000F024F8002010BD003C024070B50D4DBD
:100D400004464FF47A712878B1FBF0F00A4909683B
:100D5000B1FBF0F000F00AFB48B9102C07D20022DA
:100D60002146501E00F030F800206C6070BD01205C
:100D700070BD000028000020100000200A4808B5BF
:100D8000016841F480410160006800F480400090F7
:100D90000548001F016841F080510160006800F0C3
:100DA0008050009008BD000044380240002809DB54
:100DB00000F01F02012191404009800000F1E02075
:100DC000C0F8001170470000F0B40E4B1B680C46D1
:100DD000C3F30223C3F10705042D00D90425191D0F
:100DE000072901D2002300E0DB1E012606FA05F1E7
:100DF000491E214099409E40761E16403143F0BC6A
:100E000001F035BE0CED00E0064900F0070208686D
:100E10004FF6FF03184040EA0220034A10430860DF
:100E2000704700000CED00E00000FA052DE9F047E6
:100E30000E46050065D0DFF81481D8F80000F7B23F
:100E400000F00700B04207D288F80070D8F8000020
:100E500000F00700B04254D128683D4C810712D5FC
:100E6000400703D5206840F4E05020602878000750
:100E700003D5206840F4604020602068A96820F015
:100E8000F000084320602878C0072DD030496868FA
:100E90000839012812D0022813D0032811D009687C
:100EA000890700292DDA216821F00301014321601F
:100EB000FFF71CFF814641F2883A0EE0096889037A
:100EC000EFE709688901ECE7FFF710FFA0EB0901E4
:100ED000514502D90320BDE8F0872068696800F019
:100EE0000C00B0EB810FEFD1D8F80010404601F0B4
:100EF0000701B14207D90770006800F00700B0424F
:100F000001D00120E7E72878400705D52068E96887
:100F100020F4E050084320602878000706D52068B8
:100F2000296920F4604040EAC100206000F038F8F0
:100F30002168084AC1F30311515CC84006490860A2
:100F400006480068FFF7FAFE0020C4E7003C0240B4
:100F50000838024086320008100000202C000020D3
:100F60000448054900680968044AC1F38221515CBC
:100F7000C840704710000020083802409632000830
:100F80000448054900680968044AC1F34231515CCC
:100F9000C840704710000020083802409632000810
:100FA000154810B5006810F00C02144813D0411019
:100FB000042A0FD0082A0ED10F4C241F2268236860
:100FC00002F03F025B0207D52068C0F38810A0FB47
:100FD000010106E0084610BD2168C1F38811A1FB9C
:100FE00000010023FFF748F92168C1F30141491CC2
:100FF0004900B0FBF1F010BD083802400024F400B5
:101000002DE9F84F04006ED02078DFF84C93C0072C
:10101000A9F104054AD009F104000168C1F3810176
:10102000012908D00068C0F3810002280AD1D9F84C
:101030000000400206D52868800337D56068002884
:10104000E1D033E06068B0F5803F10D0B0F5A02F5C
:10105000286810D020F480302860286820F4802090
:1010600028606068A8B1FFF741FE06460DE02868D9
:1010700040F48030F4E740F480202860F7E700BFB8
:10108000FFF734FE801B642873D828688003F7D5E7
:101090000CE0FFF72BFE064605E000BFFFF726FE3B
:1010A000801B6428F0D828688003F7D42078DFF804
:1010B000AC8280074FF0000A3ED5A748001D0168AA
:1010C00011F00C0F08D00068C0F3810002280BD18A
:1010D000D9F80000400207D42868800716D5E068D8
:1010E000012800D112E033E1E068B8B10120C8F86E
:1010F0000000FFF7FBFD064605E000BFFFF7F6FD29
:10110000801B0228C0D828688007F7D52868216985
:1011100020F0F80040EAC10028600DE0C8F800A007
:10112000FFF7E4FD064604E0FFF7E0FD801B022820
:101130001FD828688007F7D42078000722D5864F6B
:1011400087486169703771B101210160FFF7CEFDF9
:10115000064604E0FFF7CAFD801B022809D838685C
:101160008007F7D50EE0C0F800A0FFF7BFFD0646E8
:1011700005E082E0FFF7BAFD801B02287DD83868C1
:101180008007F7D42078400768D5DFF8CCB1002776
:101190000BF13C0BDBF80000C0000BD4DBF80010B7
:1011A00041F08051CBF80010DBF80000012700F07F
:1011B000805000906B4E3068C00510D4306840F409
:1011C00080703060FFF792FD009005E0FFF78EFD24
:1011D0000099401A022850D83068C005F6D55E4EF6
:1011E000A0686C3601280FD00528306810D020F098
:1011F00001003060306820F004003060A068B8B1B1
:10120000FFF774FD00900FE0306840F00100F4E754
:1012100040F004003060F7E7FFF768FD0099411ADD
:1012200041F28830814266D830688007F4D50EE0FC
:10123000FFF75CFD009007E0FFF758FD0099411AA9
:1012400041F28830814256D830688007F4D42FB1FB
:10125000DBF8001021F08051CBF80010A069C8B372
:101260003D49091D0968C1F3810102294AD00228BC
:10127000504607D0C8F8600000E03CE0FFF736FDBC
:1012800004463BE04746C8F86000FFF72FFD0646DE
:1012900005E000BFFFF72AFD801B02282BD8286835
:1012A0008001F7D4D4E907010843A16A2E4A49080E
:1012B00002EB0141626A41EA8211084394F82C1062
:1012C00040EA0161C9F8001001203866FFF70EFD01
:1012D000044606E03EE000BFFFF708FD001B0228C1
:1012E00009D828688001F7D534E000BFFFF7FEFC7D
:1012F000001B022802D90320BDE8F88F286880016E
:10130000F4D427E00128F7D0D9F80000E26900F40E
:10131000800191421CD1226A00F03F01914217D115
:1013200047F6C071626A0140B1EB821F10D1A26A18
:101330004FF0FF3300F4403103EB5202B1EB024FA8
:1013400006D194F82C1000F07060B0EB016F01D062
:101350000120D1E70020CFE70438024000004742D7
:10136000800E4742007000400000FFFF10B5401E95
:10137000B0F1807F01D3012010BD4FF0E024606107
:101380000F21601701F073FB0020A061072020618E
:10139000002010BD7047704770B590F83C20012ABE
:1013A0002CD0012480F83C40022280F83D200368C4
:1013B0005A689D6822F070060A6832435A60104BE2
:1013C00002689A420ED0B2F1804F0BD00D4B9A4278
:1013D00008D00D4B9A4205D00C4B9A4202D00C4BD0
:1013E0009A4204D1496825F080031943916080F83E
:1013F0003D40002180F83C10084670BD022070BDC1
:10140000000001400004004000080040000C0040C3
:101410000040014010B5040003D094F83D0010B125
:1014200007E0012010BD002084F83C00204600F0B9
:101430001FF8022084F83D00211D206800F0FEFF07
:10144000012084F8460084F83E0084F83F0084F8C8
:10145000400084F8410084F8420084F8430084F896
:10146000440084F8450084F83D00002010BD0000D1
:1014700008B501681748814212D11748016841F048
:10148000010101600068002200F001000090114697
:101490001920FFF799FCBDE808401920FFF786BC2A
:1014A0000D48001FB1F1804F0BD00C4A914207D17B
:1014B000016841F002010160006800F00200009044
:1014C00008BD016841F001010160006800F0010001
:1014D000F5E70000000001404438024000040040ED
:1014E00090F83D10012901D001207047022180F8B9
:1014F0003D100168CA6842F00102CA6000680E49E6
:1015000088420ED0B0F1804F0BD00C49884208D0F1
:101510000B49884205D00B49884202D00A498842CB
:1015200004D1816801F00701062903D0016841F068
:1015300001010160002070470000014000040040EC
:1015400000080040000C00400040014070B5044617
:1015500090F83C000025012817D0012684F83C6053
:10156000022084F83D002068826822F0770222F48D
:101570007F4282600868502838D00DDC20284FD088
:1015800005DC90B3102811D14AE0022070BD30284C
:1015900046D040280AD13BE060282FD070280DD0DB
:1015A000B0F5805F03D0B0F5005F12D0012584F85C
:1015B0003D60002084F83C00284670BDCB68D1E92E
:1015C0000121206800F093FF2068816841F07701D5
:1015D00009E0CB68D1E90121206800F088FF20688C
:1015E000816841F480418160E1E719E0CA68496897
:1015F000206801F031F85021206806E0CA68496887
:10160000206801F03AF86021206800F07AFFCEE708
:10161000CA684968206801F01FF840212068F4E793
:10162000226801461046F0E7704770B5044600682E
:1016300001694FF00005C943890715D4C168C94342
:10164000890711D4E91E0161012020772068806993
:101650008007204602D0FFF7E7FF04E000F0D4F84F
:10166000204600F066F9257720680169C9434907DB
:1016700017D4C168C943490713D46FF0040101614D
:10168000022020772068806910F4407F204602D035
:10169000FFF7CAFF04E000F0B7F8204600F049F970
:1016A000257720680169C943090716D4C168C94371
:1016B000090712D46FF00801016104202077206827
:1016C000C0698007204602D0FFF7AEFF04E000F0BB
:1016D0009BF8204600F02DF9257720680169C94361
:1016E000C90617D4C168C943C90613D46FF01001E5
:1016F0000161082020772068C06910F4407F2046EF
:1017000002D0FFF791FF04E000F07EF8204600F0E1
:1017100010F9257720680169C943C90708D1C16854
:10172000C943C90704D1891E0161204600F05AF956
:1017300020680169C943090609D4C168C94309067B
:1017400005D46FF0800101612046FFF723FE206879
:101750000169C943490609D4C168C943490605D48A
:101760006FF040010161204600F060F920680169D6
:10177000C94389060BD4C168C943890607D46FF0F1
:10178000200101612046BDE87040FFF704BE70BD36
:1017900030B587B0044614216846FEF7E4FD24689E
:1017A0000023164902221648B4F1804F15D0154D7A
:1017B000AC4210D10C6844F002040C60096801F0DE
:1017C0000201059120218DE80E000321CDE90312CD
:1017D0006946FFF78DF907B030BD0B6843F002038F
:1017E0000B60096801F0020105910821CDE90012A2
:1017F0000121CDE902120491EAE7000030380240ED
:101800000004024000040040704770B5044690F8A0
:101810003C0000260D4601280FD0012084F83C0032
:101820006AB1042A1DD0082A2FD00C2A3FD00126E5
:10183000002084F83C00304670BD022070BD206856
:1018400000F068FE2068816941F00801816120682C
:10185000816921F004018161206881692A6911434D
:1018600011E0206800F07EFE2068816941F400618B
:1018700081612068816921F48061816120688169CA
:101880002A6941EA02218161D2E7206800F096FED0
:101890002068C16941F00801C1612068C16921F077
:1018A0000401C1612068C1692A69114311E02068FF
:1018B00000F0B0FE2068C16941F40061C161206898
:1018C000C16921F48061C1612068C1692A6941EA66
:1018D0000221C161ACE710B5040003D094F83D00CB
:1018E00010B107E0012010BD002084F83C00204624
:1018F00000F01EF8022084F83D00211D206800F051
:101900009DFD012084F8460084F83E0084F83F00E5
:1019100084F8400084F8410084F8420084F84300D1
:1019200084F8440084F8450084F83D00002010BD90
:101930007047704710B50446022249B104290ED001
:10194000082913D094F84100012816D0012010BDB9
:1019500094F83E000128F9D184F83E200FE094F875
:101960003F000128F2D184F83F2008E094F84000BD
:101970000128EBD184F8402001E084F841200122C5
:10198000206800F0A7FD12492068884203D1426C0C
:1019900042F400424264206888420ED0B0F1804F89
:1019A0000BD00C49884208D00B49884205D00B491E
:1019B000884202D00A49884204D1816801F00701B7
:1019C000062903D0016841F001010160002010BD2B
:1019D000000001400004004000080040000C0040EE
:1019E0000040014010B500680C49884214D1202104
:1019F0000B48FFF76DF90B48017851B190F90130B0
:101A0000B0F902200749BDE810400831064800F04F
:101A1000F5BB00231A46F5E710BD000000000140A9
:101A2000000002400000002034000020704738B55C
:101A3000044690F83E00202822D181B17AB194F872
:101A40003C0001281CD0012084F83C002063204683
:101A500000F0BCFF002803D1216B012901D0012037
:101A600038BD21680A684968009121680C3151E845
:101A7000002F42F0100241E80023002BF5D138BDC1
:101A8000022038BD10B50C4600681149884203D0C9
:101A900010BD104800F024F804220F490D48FFF74C
:101AA000C6FF0028F5D10D480068016821F0080143
:101AB0000160042CECD10848011FC278192A03D018
:101AC00000204880487010BD02884A808078F9E77D
:101AD0000044004018010020040000205C010020A8
:101AE00010B504460068406994F83D10C0F3C0107A
:101AF000212911D180B12068143050E8001F21F055
:101B0000800140E80012002AF5D1606B08B1FEF7B1
:101B1000F2FD204600F065FE2068406994F83E1012
:101B2000C0F38010222911D180B12068143050E810
:101B3000001F21F0400140E80012002AF5D1A06BFF
:101B400008B1FEF7D8FD204600F024FE002010BDAD
:101B500010B500680A49884203D010BD0948FFF754
:101B6000BFFF042208490748FFF761FF0028F5D1AD
:101B700006480068016821F00801016010BD0000FE
:101B80000044004018010020040000205C010020F7
:101B9000F8B5016804460868CA684B6910F00F0F71
:101BA0004FF000055AD003F0010602F49077374356
:101BB00065D0C10705D0D10503D5216C41F00101E5
:101BC0002164410705D5D90703D0216C41F00201FA
:101BD0002164810705D5D90703D0216C41F00401A8
:101BE0002164010707D502F02001314303D0216CA5
:101BF00041F008012164216C00293BD0800604D506
:101C0000900602D5204600F0FAFD20684069216C5C
:101C1000C0F3801001F00801014320462BD000F0F2
:101C2000B9FD20684069400621D52068143050E88D
:101C3000001F21F0400140E80012002AF5D1A06BFE
:101C4000A8B16C490165A06BFEF79EFD002811D07C
:101C5000A06B016D01B0BDE8F040084783060ED5CA
:101C600093060CD52046BDE8F84000F0C8BD2046DC
:101C7000FFF76EFFF8BDFFF76BFF2564F8BD266B1D
:101C80002023012E79D1C60677D5D60675D50868EA
:101C9000486800904869400640D5A16B08684068D4
:101CA0000004000CEAD0A28D8242E7D9E085C86921
:101CB000B0F5807F2DD020680C3050E8001F21F453
:101CC000807140E80012002AF5D12068143050E8F5
:101CD000001F21F0010140E80012002AF5D1206820
:101CE000143050E8001F21F0400140E80012002AA3
:101CF000F5D184F83E30256320680C3050E8001F91
:101D000021F0100140E80012002AF5D1A06BFEF787
:101D1000F2FCA08DE18D401A81B229E0A08DE18D09
:101D2000401A81B2E08D0028A8D00029A6D02068F2
:101D30000C3050E8002F22F4907240E80026002E6C
:101D4000F5D12068143050E8002F22F0010240E85D
:101D50000026002EF5D184F83E30256320680C3033
:101D600050E8002F22F0100240E80023002BF5D1AC
:101D70002046FFF787FEF8BDFFE705062BD51506C1
:101D800029D594F83D002128F5D1A068B0F5805FF1
:101D900001D12069B0B1206A411C2162216800781C
:101DA0004860E08C401E0004000CE084E3D1206811
:101DB000C16821F08001C1602068C16841F0400124
:101DC000C160D8E7206A0088C0F308004860206A34
:101DD000801C2062E5E74006CDD55006CBD5CA6809
:101DE000204622F04002CA6084F83D3000F09EF8A0
:101DF000C1E700009F26000870B5040004D094F8E5
:101E00003D00002510B106E0012070BD84F83C5073
:101E1000204600F023F8242084F83D002068C168A3
:101E200021F40051C160204600F04AFD206801699C
:101E300021F4904101612068416921F02A0141614A
:101E40002068C16841F40051C1602564202084F8F5
:101E50003D0084F83E00002070BD00002DE9F043F5
:101E600087B0064614216846FEF77DFA2949306896
:101E700088424CD128480025016841F400310160B6
:101E8000006800F40030059023481038016841F0E4
:101E9000010101600068022400F0010005900420A7
:101EA00003274FF007088DE8B101DFF8709069460D
:101EB0004846FEF71DFE0820CDE9000402AA0120D5
:101EC00082E8810169464846FEF712FE154C144827
:101ED00020604FF00060C4E901054014C4E90350DC
:101EE00080106561C4E906504002C4E90805204637
:101EF000FEF72CFD08B1FEF7FCFBB463002211468F
:101F00002620A663FEF760FF2620FEF74FFF07B0EE
:101F1000BDE8F08300440040403802400000024029
:101F2000886002405C010020704770477047FEE700
:101F3000094808B5016841F40011016000680022F9
:101F400000F40010009011461020FEF73DFFBDE8A0
:101F500008401020FEF72ABF3038024070B586B026
:101F600014216846FEF7FFF92A480025016841F070
:101F700080010160016801F080010591016841F074
:101F800001010160016801F001010591016841F062
:101F9000020101600068204E00F00200059000225E
:101FA00020213046FEF79CFE202001248DE83100E0
:101FB000694630460395FEF79BFD4FF482604FF46F
:101FC0008815CDE90005694602941448FEF790FD96
:101FD0002002CDE90005694602943046FEF788FDEF
:101FE000002211460A20FEF7EFFE0A20FEF7DEFE71
:101FF000002211461720FEF7E7FE1720FEF7D6FE57
:10200000002211462820FEF7DFFE2820FEF7CEFE34
:1020100006B070BD303802400000024000040240AB
:1020200010B586B0002418480094019402940394DB
:10203000049414490594016040F2E731C0E90114A9
:1020400040F2CF71C0E9031444618461FFF7E2F903
:1020500008B1FEF74EFB4FF48050009069460A48E5
:10206000FFF774FA08B1FEF744FB049404A906488C
:102070000594FFF791F9002801D0FEF73AFB06B06E
:1020800010BD0000000001404000002010B58EB0DF
:1020900000240794089409940A940B941C21684620
:1020A0000C94FEF760F91E484FF08041016040F249
:1020B000CF71C0E901144910C0E903148461FFF72E
:1020C000A9F908B1FEF715FB4FF48050079007A956
:1020D0001348FFF73BFA08B1FEF70BFB1048FFF778
:1020E000FAFB08B1FEF705FB0B940BA90C480C9406
:1020F000FFF752F908B1FEF7FCFA6020CDE90004C1
:1021000002940422694606480494FFF77EFB08B156
:10211000FEF7EFFA0248FFF73BFB0EB010BD0000E0
:102120008800002010B58EB000240794089409940C
:102130000A940B941C2168460C94FEF714F91E486F
:102140001C49016040F2E731C0E90114C0E9031401
:102150008461FFF75FF908B1FEF7CBFA4FF48050C6
:10216000079007A91448FFF7F1F908B1FEF7C1FA83
:102170001148FFF7B0FB08B1FEF7BBFA0B940BA9AF
:102180000D480C94FFF708F908B1FEF7B2FA602089
:10219000CDE9000402940422694607480494FFF73D
:1021A00034FB08B1FEF7A5FA0348FFF7F1FA0EB0C9
:1021B00010BD000000040040D00000200C4810B505
:1021C0000A4901604FF4E1314160002181600C2235
:1021D000C160C0E904128161C161FFF70DFE0028F2
:1021E00003D0BDE81040FEF784BA10BD00440040A3
:1021F00018010020FEE7FEE7704700002DE9F047D8
:10220000314E384C98462DED068B151E8946824678
:102210009FED2EAB9FED2F8B9FED309B3FDA94ED22
:10222000000B53EC192B51EC100B00F057FD3BD871
:102230005FF0460794ED000B53EC182B51EC100B9C
:1022400000F04CFD17D8376094ED000B53EC1A2BBF
:1022500051EC100B00F08EFCC4E90001EAE7376096
:1022600094ED000B53EC1A2B51EC100B00F082FC98
:10227000C4E9000100E0642794ED000B53EC182B37
:1022800051EC100B00F064FE0ED894ED000B53ECF3
:10229000192B51EC100B00F021FD05D8DFE703DD11
:1022A0009FED110B84ED000B00EE105A5046B8EE76
:1022B000C00AFEF7C3F9BDEC068B41464846BDE8AF
:1022C000F04700F047B8000038040040FCA9F1D204
:1022D0004D62503F0000000000407F4000000000C1
:1022E00000408F402000002000000000000000009F
:1022F00010B510EE100A00F04BFF9FED081B53ECD9
:10230000112B00F027FD9FED071B53EC112B00F064
:1023100031FC00F0FDFB00EE100A10BD3333333307
:102320003333E33F0000000000C052402DE9F0418C
:102330000F4604461D46164604210548FFF7FAFAE3
:1023400066704FF0804025708763BDE8F081000023
:102350008800002010B5044690F90000884203DD93
:1023600094F90100884200DB014600EE101AB8EE35
:10237000C00AFFF7BDFF84ED010ABDEEC00A4FF0B1
:10238000804110EE100A886310BD7047FEF7B4BCA0
:1023900030B593B030216846FDF7E5FF14210CA855
:1023A000FDF7E1FF1C480025016841F08051016004
:1023B000006800F0805011901848016841F44041D5
:1023C00001600068022400F4404011900120009058
:1023D000000401908001CDE9064008AA0420642190
:1023E00082E813000B906846FEF70AFE08B172B649
:1023F000FEE70CA90F2081E831004FF48050CDE9B1
:102400000F0503210CA8FEF711FD002801D072B6BC
:10241000FEE713B030BD00004038024000700040BD
:102420000248016841F470010160704788ED00E0E6
:102430000148FFF7FAB8000040000020F0B502683C
:102440001D4B1E4C9F031E4D1E4E984207D0B84296
:1024500005D0A04203D0A84201D0B04204D122F05E
:10246000700C4A6842EA0C02984210D0B8420ED072
:10247000A0420CD0A8420AD0B04208D0124CA042D0
:1024800005D0124CA04202D0114CA04203D122F43C
:102490004074CA6822434C6922F0800222430260E1
:1024A0008A68C2620A688262984201D1096901633E
:1024B00001214161F0BD0000000001400004004026
:1024C00000080040000C0040004001400044014072
:1024D0000048014010B501F01F030121046A994032
:1024E0008C430462016A9A401143016210BD10B529
:1024F000846842EA032224F47F440A432243826030
:1025000010BD826822F070020A4342F00701816028
:102510007047000030B5026A22F001020262026ACE
:102520004368846924F073050C682C4322F002058B
:102530008A682A430A4DA8420BD122F00805CA68CE
:1025400023F440732A434D6922F004021D438B6932
:102550002B434360846149684163026230BD0000DF
:102560000000014030B5026A22F010020262026AE5
:10257000436884690D6824F4E64444EA05248D68C0
:1025800022F0200242EA05120B4DA8420ED1CD687E
:1025900022F0800242EA05124D6923F4406343EAC7
:1025A00085038D6922F0400243EA8503436084611C
:1025B00049688163026230BD0000014030B5026AA3
:1025C00022F480720262036A4268C46923F40073D1
:1025D00024F073050C682C438D6843EA05230C4DE9
:1025E000A8420ED1CD6823F4006343EA05234D6968
:1025F00022F4405242EA05128D6923F4806342EAD4
:1026000005124260C4614968C163036230BD0000C5
:102610000000014030B5026A22F480520262046A6E
:102620004268C3690D6823F4E64343EA05238D68D5
:1026300024F4005444EA0534064DA84204D14D69FF
:1026400022F4804242EA85124260C3614968016413
:10265000046230BD0000014010B5036A046A24F032
:1026600001040462846924F0F00444EA021423F0B3
:102670000A020A438461026210BD10B5036A23F0A6
:10268000100303628369046A23F4704343EA02324D
:1026900024F0A00343EA01118261016210BD10B56C
:1026A000806B0021C185C184FFF752FA10BD70B55F
:1026B000846B2068406994F83D10C0F3C010002579
:1026C000212904D118B1E584204600F08AF8206859
:1026D000406994F83E10C0F38010222904D118B14B
:1026E000E585204600F056F8206C40F0100020648C
:1026F0002046FFF72DFA70BD10B50146806B0968C2
:102700000968C9052FD40021C18501680C3151E841
:10271000002F22F4807241E80023002BF5D10168DC
:10272000143151E8002F22F0010241E80023002B70
:10273000F5D10168143151E8002F22F0400241E840
:102740000023002BF5D1202180F83E10016B0129D8
:1027500009D101680C3151E8002F22F0100241E844
:102760000023002BF5D1016B012902D0FFF7DCFB20
:1027700010BD818DFFF786F910BD10B5806B016B20
:10278000012902D0FFF7D1FB10BD818D4908FFF769
:1027900079F910BD01680C3151E8002F22F49072D4
:1027A00041E80023002BF5D10168143151E8002FD6
:1027B00022F0010241E80023002BF5D1016B012931
:1027C00009D101680C3151E8002F22F0100241E8D4
:1027D0000023002BF5D1202180F83E100021016359
:1027E000704701680C3151E8002F22F0C00241E827
:1027F0000023002BF5D1202180F83D10704708B54B
:1028000090F83E10222901D0022008BD82684FF4C2
:1028100080539A4201D1016921B1816A9A421BD049
:102820004AB10AE00268816A5268C2F308020A806B
:10283000816A891C08E0026972B10268526802F07C
:102840007F020A70816A491C8162C18D491E090498
:10285000090CC18503D019E002685268F1E70168EC
:10286000CA6822F02002CA600168CA6822F4807235
:10287000CA6001684A6922F001024A61202180F899
:102880003E10016B012903D0FFF74EFB002008BD6D
:102890000021016301680C3151E8002F22F0100281
:1028A00041E80023002BF5D101680A68D20602D561
:1028B0000A6849680091818DFFF7E4F8E6E70000B7
:1028C00070B5044600680169E26821F44051114383
:1028D00001612169A068E269084361691143084305
:1028E0002168CA6849F20C639A430243CA602068AF
:1028F0004169A26921F44071114341613149206865
:10290000884202D03049884202D1FEF739FB01E00B
:10291000FEF726FBE2690023192164253226B2F571
:10292000004F626828D0A0FB0101930F9200FDF7D1
:10293000A3FC0146B0FBF5F06FF01802504301EB29
:10294000800006EB0010B0FBF5F000F0F002B1FBE8
:10295000F5F002EB0012B1FBF5F06FF018035843ED
:1029600001EB800006EB0010B0FBF5F000F00F006B
:1029700021681044886070BDA0FB010192185B4182
:10298000FDF77AFC0146B0FBF5F00201B1FBF5F072
:102990006FF01803584301EB800006EBC000B0FB5A
:1029A000F5F000F0F80002EB4002B1FBF5F05843FF
:1029B00001EB800006EBC000B0FBF5F000F0070073
:1029C000D6E70000001001400014014038B58162D4
:1029D00082850025134604460564222084F83E00C3
:1029E000A26B1C48D063A26B1B481064A26B1B48EF
:1029F000D064A06B0A4605652168A06B091DFEF72F
:102A00000FF8206801684068009084F83C50206905
:102A100048B120680C3050E8001F41F4807140E854
:102A20000012002AF5D12068143050E8001F41F050
:102A3000010140E80012002AF5D12068143050E866
:102A4000001F41F0400140E80012002AF5D10020AB
:102A500038BD0000F92600087B270008AF260008D3
:102A60000148FFF795B8000018010020FEE70907AC
:102A7000090E002804DB00F1E02080F80014704704
:102A800000F00F0000F1E02080F8141D70470000F6
:102A9000FEF73AF9FFF77CFCFFF760FAFFF748FA18
:102AA000FFF7F4FAFFF73EFBFFF7BAFAFFF786FBF2
:102AB0000F236FF0090264211048FDF7A5FD1923CB
:102AC0005A424B210E48FFF731FC0E48FEF708FD35
:102AD00002E00D48FFF704F809490422091F0A48DB
:102AE000FEF7A5FF0028F4D108480068016821F02E
:102AF000080101600A20FDF7CBFFFBE7340000204E
:102B00000800002040000020180100205C01002087
:102B100021F00042A2F16052B2F5801F01F00043A3
:102B200028BFD2F17F6C0BD95FEA001C43EAC202D6
:102B300042EB507018BF704728BF20F0010070476B
:102B4000B2F5801FBCBF184670474FEA410C1CF518
:102B5000001F02D2084600F091BB70B500F0A4F946
:102B600000000089FFF7F6BF4FF00040A0F580009D
:102B70007047000010B591EA030F48BF83F000438F
:102B800000F12482841A71EB030C05D2121943EB75
:102B90000C03001B61EB0C01DFF824E14FEA115438
:102BA000A4EB135C1EEA430F18BF9EEA445F73D088
:102BB00023EA0E03DCF1200E21EA045143F48013D2
:102BC00032D322FA0CFE10EB0E0023FA0CFE41EB7E
:102BD0000E01CCF1200E03FA0EFE10EB0E0051F1A7
:102BE0000001B1F5801FCCF1200E32D201EB04516F
:102BF00012FA0EF2BDE8104058BF7047401C38BFB3
:102C00005FEA420218BF7047002814BF20F001009D
:102C100041F100014FEA410313F5001F38BF70472F
:102C2000A1F1C04100F08EB9012A43EB0302ACF1DF
:102C3000200CDCF11F0E32BF4FF0000E23FA0CF314
:102C400010EB030041EB0451B4EB115FD0D0A1EBCA
:102C5000045101F5801149085FEA300001EB04518D
:102C60000ED350F1000038BF12FA0EFE08D1BDE8B5
:102C70001040C9E7401C38BF5FEA4202CAD1C3E72F
:102C8000BDE810404FEA410313F5001F38BF7047FD
:102C9000A1F1C04100F056B99EEA445F08D011EAA4
:102CA0005E0FBDE8104004BF01F0004100207047F6
:102CB000BDE8104070B500F0F7F800BF64FBBE3E01
:102CC0000000E0FF491058BFC1F140415B1058BF00
:102CD000C3F140438B42EFF30080704751EA030C8D
:102CE00017D41CF5801F58BFBCF5801F00F106806B
:102CF000994218BF704708BF9042704707D711F537
:102D0000801F58BF13F5801F19D49942704789421C
:102D100070471CF5801F08D5BCF5801FF7D58B4286
:102D200018BF704708BF824270474FF4001C1CEB6D
:102D3000410F38BF1CEB430F01D28B42704770B577
:102D400000F0B2F8922449004FF000514FF0805348
:102D5000FFF7B8BFDFF848C170B51CEA111E1EBFEF
:102D60001CEA13159EEA0C0F95EA0C0F00F06F8019
:102D700081EA030423EA4C134EEAD47E21EA4C1183
:102D800041F4801143F48013AE44A1FB024CA0FB3C
:102D90000365AEF17F7E361955EB0C05A1FB034CA4
:102DA0004CF10003A0FB021C16EB0C06654153F12D
:102DB0000003094218BF46F0010613F4007F0BD14F
:102DC0004FEA03314FEA0530340341EA155140EA36
:102DD00016506FF003020AE04FEAC3214FEAC52004
:102DE000F40241EA555140EA56506FF0020202EBFC
:102DF0002E4201EB025585EACE710AD05FEA440CFF
:102E000018BF24F0004450F1000041F1000120EA15
:102E1000D47040F2FE7C624500D270BDA84214BF5F
:102E20004FF080444FF04044002E08BF0024BEF114
:102E3000806FA8BFA1F1C041BDE8704080F28280E0
:102E40004FF0000001F1C04101F0004170479EEADF
:102E50000C0F0CEA131518BF95EA0C0F06D04FF0B3
:102E6000000081EA030E0EF0004170BD00F01CF876
:102E70008900013E00F007B800F009B84FEA430CA2
:102E80005FEA5C5C08D081EA030100F05BB84FEABE
:102E9000410C5FEA5C5CF6D14FF0000001497047DD
:102EA0000000FF070000F87F0EF1020E2EF0030E67
:102EB0005EF8046B364205D4012A43EB030515F591
:102EC000001F12D8012841EB010C1CF5001F0CD883
:102ED0000ED14FEAD17C15F5001F0CEB4C0C0CF118
:102EE000020C08BF4CEBD37C04E04FF0080C01E06F
:102EF0004FEAD37C0CEB4C0526FA05F606F00706E4
:102F0000B6F1040C06D20EEB860CBDE870404CF016
:102F1000010C6047DFE80CF0090B02024FF00041A2
:102F20004FF00000A1F5002170BD194610460128A0
:102F300051EB010418BFD4F5001484BF002001F048
:102F4000004170BD0808A0F500114FEA310170473B
:102F500053EA010C17D41CF5801F58BFBCF5801F25
:102F600000F106808B4218BF704708BF824270474D
:102F700007D713F5801F58BF11F5801F19D48B4256
:102F800070479B4270471CF5801F08D5BCF5801F19
:102F9000F7D5994218BF704708BF904270474FF469
:102FA000001C1CEB430F38BF1CEB410F01D29942B0
:102FB00070470FB40CBC03BCFFF7C1BE10B591EA5B
:102FC000030F48BF83F000433FF5DCAD841A71EB7B
:102FD000030C07D212198CF0004C43EB0C03001BBE
:102FE00061EB0C01DFF8A4E14FEA1154A4EB135C90
:102FF0001EEA430F18BF9EEA445F00F0B08023EA48
:103000006E03524221EA0451C3EB6E0338BF5B1ECC
:10301000DCF1200E25D322FA0CFE10EB0E0043FA51
:103020000CFE41EB0E01CCF1200E03FA0EFE10EB6C
:103030000E0051F10001CCF1200E29D412FA0EF24B
:1030400001EB0451BDE8104058BF7047401C1CBF45
:10305000B2F1004F704700280CBF491C20F001005E
:10306000704712EB020E43EB030218BF4FF0010E44
:103070004EEA4202ACF1200CDCF11E0E54D943FAA8
:103080000CFE10EB0E0051F1FF31CCF11E0ED5D528
:103090000EF1010E12FA0EFE404141EB010101EB6F
:1030A000445C5FEA5C5C10D910EBDE7001EB04510C
:1030B00038BFBEF1004FBDE8104018BF7047002870
:1030C0000CBF491C20F00100704730D24FEAD42CCD
:1030D00011F5001124F400641BD0B1FA81F20B3A0F
:1030E000A41AA41ED2F12003914030FA03F319432D
:1030F000904001EBCC71002C01EB0451BDE8104075
:10310000A8BF704701F1C0414FF0000001F000413D
:103110007047B0FA80F310FA03F100D110BDE41A41
:10312000173C4805C90AE4E701EB045110BD4910FA
:1031300001EB0451BDE810404FEA300002E04FF0CF
:10314000000170474A0008BF0042F8D0B2F5001FE6
:1031500028BF704701F000414FF0000070479EEA21
:10316000445F07D011EA5E0FBDE8104004BF0021A4
:1031700000207047BDE8104070B5FFF795FE00BF16
:1031800040DFF63E83F00041104670470000E0FF4C
:1031900043004FEAD30C4FEA3C0C43401FBF4007AB
:1031A0000CF1605113F0FE4F70471CF0006F03D11B
:1031B00000200CF0004170470CF0004343EA5070CF
:1031C00010B540EACC0000F00EF800BF00000092FD
:1031D0004FEA0001FFF7B6BE4FF000414FF000008C
:1031E000A1F5002170470EF1020E2EF0030E5EF8DD
:1031F000044B244204D44FEA4102B2F17F4F11D86C
:103200004FEA4003B3F17F4F0CD80ED14FEAD07C88
:10321000B2F17F4F0CEB4C0C0CF1020C08BF4CEBE5
:10322000D17C04E04FF0080C01E04FEAD17C0CEBBC
:103230004C0324FA03F404F00704B4F1040C06D29E
:103240000EEB840CBDE810404CF0010C6047DFE849
:103250000CF0070802024FF00040A0F5800010BDFE
:103260000846420018BFD2F1807288BF00F00040CB
:1032700010BD4FF04070E1EE100A7047FF2141EAA7
:10328000D050C0057047000000000000000001029F
:1032900003040607080900000000010203040006F9
:1032A0001016000610160000C832000800000020AA
:1032B00034000000D4010008FC3200083400002073
:1032C000EC070000F0010008000000000000000012
:1032D00000000000000000000024F40000000000D6
:1032E0009A9999999999B93F00000000000000004F
:0C32F000010000001000000000000000C1
:040000050800019955
:00000001FF
